{
  "contractName": "healthIncentive",
  "abi": [
    {
      "inputs": [
        {
          "internalType": "uint256",
          "name": "totalTokens",
          "type": "uint256"
        }
      ],
      "payable": false,
      "stateMutability": "nonpayable",
      "type": "constructor"
    },
    {
      "anonymous": false,
      "inputs": [
        {
          "indexed": false,
          "internalType": "bytes32",
          "name": "action",
          "type": "bytes32"
        },
        {
          "indexed": false,
          "internalType": "uint256",
          "name": "fundsTransferred",
          "type": "uint256"
        }
      ],
      "name": "incentivePenalty",
      "type": "event"
    },
    {
      "constant": false,
      "inputs": [
        {
          "internalType": "uint256",
          "name": "pId",
          "type": "uint256"
        },
        {
          "internalType": "uint256",
          "name": "insuranceProviderId",
          "type": "uint256"
        },
        {
          "internalType": "uint256",
          "name": "registrationDate",
          "type": "uint256"
        },
        {
          "internalType": "address",
          "name": "patientWallet",
          "type": "address"
        },
        {
          "internalType": "uint256",
          "name": "pAge",
          "type": "uint256"
        },
        {
          "internalType": "bytes32",
          "name": "sex",
          "type": "bytes32"
        },
        {
          "internalType": "bytes32",
          "name": "pDisease",
          "type": "bytes32"
        }
      ],
      "name": "registerPatient",
      "outputs": [],
      "payable": false,
      "stateMutability": "nonpayable",
      "type": "function"
    },
    {
      "constant": false,
      "inputs": [
        {
          "internalType": "uint256",
          "name": "pId",
          "type": "uint256"
        },
        {
          "internalType": "uint256",
          "name": "steps",
          "type": "uint256"
        },
        {
          "internalType": "uint256",
          "name": "timeStamp",
          "type": "uint256"
        }
      ],
      "name": "updateFootSteps",
      "outputs": [],
      "payable": false,
      "stateMutability": "nonpayable",
      "type": "function"
    },
    {
      "constant": false,
      "inputs": [
        {
          "internalType": "uint256",
          "name": "pId",
          "type": "uint256"
        },
        {
          "internalType": "uint256",
          "name": "monthlyAvg",
          "type": "uint256"
        },
        {
          "internalType": "uint256",
          "name": "weeklyAvg",
          "type": "uint256"
        }
      ],
      "name": "incentiveAndPenalty",
      "outputs": [],
      "payable": false,
      "stateMutability": "nonpayable",
      "type": "function"
    },
    {
      "constant": true,
      "inputs": [
        {
          "internalType": "uint256",
          "name": "pId",
          "type": "uint256"
        }
      ],
      "name": "getBalances",
      "outputs": [
        {
          "internalType": "uint256",
          "name": "balance",
          "type": "uint256"
        }
      ],
      "payable": false,
      "stateMutability": "view",
      "type": "function"
    }
  ],
  "bytecode": "0x608060405234801561001057600080fd5b5060405161084e38038061084e8339818101604052602081101561003357600080fd5b8101908080519060200190929190505050336000806101000a81548173ffffffffffffffffffffffffffffffffffffffff021916908373ffffffffffffffffffffffffffffffffffffffff16021790555080600181905550506107b38061009b6000396000f3fe608060405234801561001057600080fd5b506004361061004c5760003560e01c80633f41854a14610051578063490adbaf146100935780639fe62d99146100d5578063ca77cbe714610155575b600080fd5b6100916004803603606081101561006757600080fd5b81019080803590602001909291908035906020019092919080359060200190929190505050610197565b005b6100bf600480360360208110156100a957600080fd5b81019080803590602001909291905050506101c5565b6040518082815260200191505060405180910390f35b610153600480360360e08110156100eb57600080fd5b81019080803590602001909291908035906020019092919080359060200190929190803573ffffffffffffffffffffffffffffffffffffffff1690602001909291908035906020019092919080359060200190929190803590602001909291905050506101e2565b005b6101956004803603606081101561016b57600080fd5b81019080803590602001909291908035906020019092919080359060200190929190505050610391565b005b8160056000858152602001908152602001600020600083815260200190815260200160002081905550505050565b600060026000838152602001908152602001600020549050919050565b86600460008673ffffffffffffffffffffffffffffffffffffffff1673ffffffffffffffffffffffffffffffffffffffff1681526020019081526020016000206000018190555085600460008673ffffffffffffffffffffffffffffffffffffffff1673ffffffffffffffffffffffffffffffffffffffff1681526020019081526020016000206004018190555082600460008673ffffffffffffffffffffffffffffffffffffffff1673ffffffffffffffffffffffffffffffffffffffff1681526020019081526020016000206002018190555081600460008673ffffffffffffffffffffffffffffffffffffffff1673ffffffffffffffffffffffffffffffffffffffff1681526020019081526020016000206003018190555080600460008673ffffffffffffffffffffffffffffffffffffffff1673ffffffffffffffffffffffffffffffffffffffff168152602001908152602001600020600101819055506000600560008981526020019081526020016000206000878152602001908152602001600020819055506000600260008981526020019081526020016000208190555050505050505050565b6000809054906101000a900473ffffffffffffffffffffffffffffffffffffffff1673ffffffffffffffffffffffffffffffffffffffff163373ffffffffffffffffffffffffffffffffffffffff1614610453576040517f08c379a000000000000000000000000000000000000000000000000000000000815260040180806020018281038252600f8152602001807f4f776e6572204f6e6c792063616c6c000000000000000000000000000000000081525060200191505060405180910390fd5b611388811061065c57612710821161050457600560015403600181905550600560026000858152602001908152602001600020540160026000858152602001908152602001600020819055507f11c6986d922f14a58824dc51817fa5ade3c58e0688300cc5322b6eda437ad9dd600560405180807f496e63656e74697665000000000000000000000000000000000000000000000081525060200182815260200191505060405180910390a1610657565b612710821180156105175750614e208211155b156105bb57600a60015403600181905550600a60026000858152602001908152602001600020540160026000858152602001908152602001600020819055507f11c6986d922f14a58824dc51817fa5ade3c58e0688300cc5322b6eda437ad9dd600a60405180807f496e63656e74697665000000000000000000000000000000000000000000000081525060200182815260200191505060405180910390a1610656565b601460015403600181905550601460026000858152602001908152602001600020540160026000858152602001908152602001600020819055507f11c6986d922f14a58824dc51817fa5ade3c58e0688300cc5322b6eda437ad9dd601460405180807f496e63656e74697665000000000000000000000000000000000000000000000081525060200182815260200191505060405180910390a15b5b610779565b6000600260008581526020019081526020016000205414156106dd577f11c6986d922f14a58824dc51817fa5ade3c58e0688300cc5322b6eda437ad9dd600060405180807f4e6f2077616c6c65742062616c616e636520746f2070656e616c697a6500000081525060200182815260200191505060405180910390a1610778565b600460026000858152602001908152602001600020540360026000858152602001908152602001600020819055506004600154016001819055507f11c6986d922f14a58824dc51817fa5ade3c58e0688300cc5322b6eda437ad9dd600460405180807f50656e616c697a6564000000000000000000000000000000000000000000000081525060200182815260200191505060405180910390a15b5b50505056fea265627a7a723158208e418943d3f68efb9506d4601c43b008b4c4111cf88dd612f86bbc06f0f6809664736f6c63430005100032",
  "source": "pragma solidity >=0.5.0 <0.7.0;\n\ncontract healthIncentive {\n    address owner;\n    uint256 healthTokens;\n\n    constructor(uint256 totalTokens) public {\n        owner = msg.sender;\n        healthTokens = totalTokens;\n    }\n    struct patient {\n        uint256 patientID;\n        bytes32 disease;\n        uint256 age;\n        bytes32 gender;\n        uint256 insurerId;\n        uint256 walletBalance;\n    }\n\n    struct insuranceProvider {\n        uint256 provideID;\n        bytes32 location;\n    }\n\n    modifier ownerOnly() {\n        require(msg.sender == owner, \"Owner Only call\");\n        _;\n    }\n    event incentivePenalty(bytes32 action, uint256 fundsTransferred);\n    mapping(uint256 => uint256) walletBalances;\n    mapping(uint256 => address) idToWallet;\n    mapping(address => patient) patientData;\n    mapping(uint256 => mapping(uint256 => uint256)) patientDateWiseSteps;\n\n    function registerPatient(\n        uint256 pId,\n        uint256 insuranceProviderId,\n        uint256 registrationDate,\n        address patientWallet,\n        uint256 pAge,\n        bytes32 sex,\n        bytes32 pDisease\n    ) public {\n        patientData[patientWallet].patientID = pId;\n        patientData[patientWallet].insurerId = insuranceProviderId;\n        patientData[patientWallet].age = pAge;\n        patientData[patientWallet].gender = sex;\n        patientData[patientWallet].disease = pDisease;\n        patientDateWiseSteps[pId][registrationDate] = 0;\n        walletBalances[pId] = 0;\n    }\n\n    function updateFootSteps(uint256 pId, uint256 steps, uint256 timeStamp)\n        public\n    {\n        patientDateWiseSteps[pId][timeStamp] = steps;\n    }\n\n    function incentiveAndPenalty(\n        uint256 pId,\n        uint256 monthlyAvg,\n        uint256 weeklyAvg\n    ) public ownerOnly {\n        if (weeklyAvg >= 5000) {\n            if (monthlyAvg <= 10000) {\n                healthTokens = healthTokens - 5;\n                walletBalances[pId] = walletBalances[pId] + 5;\n                emit incentivePenalty(\"Incentive\", 5);\n            } else if (monthlyAvg > 10000 && monthlyAvg <= 20000) {\n                healthTokens = healthTokens - 10;\n                walletBalances[pId] = walletBalances[pId] + 10;\n                emit incentivePenalty(\"Incentive\", 10);\n            } else {\n                healthTokens = healthTokens - 20;\n                walletBalances[pId] = walletBalances[pId] + 20;\n                emit incentivePenalty(\"Incentive\", 20);\n            }\n        } else {\n            if (walletBalances[pId] == 0) {\n                emit incentivePenalty(\"No wallet balance to penalize\", 0);\n            } else {\n                walletBalances[pId] = walletBalances[pId] - 4;\n                healthTokens = healthTokens + 4;\n                emit incentivePenalty(\"Penalized\", 4);\n            }\n        }\n    }\n\n    function getBalances(uint256 pId) public view returns (uint256 balance) {\n        balance = walletBalances[pId];\n    }\n\n}\n",
  "sourcePath": "C:\\Harsha\\Opt\\src\\Sol\\contracts\\healthIncentive.sol",
  "compiler": {
    "name": "solc",
    "version": "0.5.16+commit.9c3226ce.Emscripten.clang"
  },
  "schemaVersion": "3.0.23",
  "updatedAt": "2020-02-18T16:03:18.864Z",
  "networkType": "ethereum",
  "devdoc": {
    "methods": {}
  },
  "userdoc": {
    "methods": {}
  }
}